:100000000C9462000C948A000C948A000C948A0070
:100010000C948A000C948A000C948A000C948A0038
:100020000C948A000C948A000C948A000C948A0028
:100030000C948A000C948A000C948A000C948A0018
:100040000C94AE030C948A000C947C030C9456031D
:100050000C948A000C948A000C948A000C948A00F8
:100060000C948A000C948A000000000024002700F1
:100070002A0000000000250028002B0000000000DE
:1000800023002600290004040404040404040202DA
:100090000202020203030303030301020408102007
:1000A0004080010204081020010204081020000012
:1000B0000008000201000003040700000000000027
:1000C0000000000711241FBECFEFD8E0DEBFCDBF78
:1000D00011E0A0E0B1E0EEEFFEE002C005900D926D
:1000E000A234B107D9F721E0A2E4B1E001C01D922A
:1000F000AC3FB207E1F710E0C2E6D0E004C02197C0
:10010000FE010E947707C136D107C9F70E94F803A4
:100110000C947D070C940000AF92BF92CF92DF92B7
:10012000EF92FF920F931F93CF93DF936C017B01AC
:100130008B01040F151FEB015E01AE18BF08C0173D
:10014000D10759F06991D601ED91FC910190F081B0
:10015000E02DC6010995892B79F7C501DF91CF9173
:100160001F910F91FF90EF90DF90CF90BF90AF90D5
:100170000895FC01538D448D252F30E0842F90E0AD
:10018000821B930B541710F0CF9608950197089592
:10019000FC01918D828D981761F0A28DAE0FBF2F5B
:1001A000B11D5D968C91928D9F5F9F73928F90E0B1
:1001B00008958FEF9FEF0895FC01918D828D981720
:1001C00031F0828DE80FF11D858D90E008958FEF5D
:1001D0009FEF0895FC01918D228D892F90E0805C26
:1001E0009F4F821B91098F73992708958FE591E0A6
:1001F0000E94EA0021E0892B09F420E0822F089573
:1002000080E090E0892B29F00E94F60081110C9487
:1002100000000895FC01A48DA80FB92FB11DA35AA9
:10022000BF4F2C91848D90E001968F739927848F16
:10023000A689B7892C93A089B1898C918370806439
:100240008C93938D848D981306C00288F389E02DDA
:1002500080818F7D80830895EF92FF920F931F938B
:10026000CF93DF93EC0181E0888F9B8D8C8D981369
:100270001AC0E889F989808185FF15C09FB7F89475
:10028000EE89FF896083E889F989808183708064C1
:1002900080839FBF81E090E0DF91CF911F910F910C
:1002A000FF90EF900895F62E0B8D10E00F5F1F4F1B
:1002B0000F731127E02E8C8D8E110CC00FB607FC2A
:1002C000FACFE889F989808185FFF5CFCE010E94B8
:1002D0000A01F1CFEB8DEC0FFD2FF11DE35AFF4F1B
:1002E000F0829FB7F8940B8FEA89FB898081806246
:1002F000CFCFCF93DF93EC01888D8823B9F0AA8903
:10030000BB89E889F9898C9185FD03C0808186FDD0
:100310000DC00FB607FCF7CF8C9185FFF2CF80811F
:1003200085FFEDCFCE010E940A01E9CFDF91CF9189
:100330000895833081F028F4813099F08230A9F05B
:1003400008958730A9F08830C9F08430B1F48091E5
:1003500080008F7D03C0809180008F778093800024
:10036000089584B58F7784BD089584B58F7DFBCFC4
:100370008091B0008F778093B00008958091B00095
:100380008F7DF9CFCF93DF93282F30E0F901E2552D
:10039000FF4F8491F901E656FF4FD491F901EA57D6
:1003A000FF4FC491CC23A1F081110E949901EC2F41
:1003B000F0E0EE0FFF1FE458FF4FA591B491EC91D0
:1003C000ED2381E090E009F480E0DF91CF91089582
:1003D00080E090E0FACF1F93CF93DF93282F30E097
:1003E000F901E255FF4F8491F901E656FF4FD49190
:1003F000F901EA57FF4FC491CC23A9F0162F8111C0
:100400000E949901EC2FF0E0EE0FFF1FEE58FF4F16
:10041000A591B4918FB7F894EC91111108C0D095C3
:10042000DE23DC938FBFDF91CF911F910895DE2BE8
:10043000F8CFCF93DF9390E0FC01E656FF4F249175
:100440008A579F4FFC0184918823D1F090E0880F58
:10045000991FFC01E859FF4FA591B491FC01EE589A
:10046000FF4FC591D491623071F49FB7F8943C91DD
:10047000822F809583238C93E8812E2B28839FBF26
:10048000DF91CF9108958FB7F894EC912E2B2C9398
:100490008FBFF6CF8E50806480937C0080917A006D
:1004A000806480937A0080917A0086FDFCCF8091F1
:1004B00078009091790008953FB7F89480914701B2
:1004C00090914801A0914901B0914A0126B5A89B9D
:1004D00005C02F3F19F00196A11DB11D3FBFBA2FD6
:1004E000A92F982F8827BC01CD01620F711D811D96
:1004F000911D42E0660F771F881F991F4A95D1F71B
:1005000008958F929F92AF92BF92CF92DF92EF9217
:10051000FF920E945C024B015C018AE0C82ED12C44
:10052000E12CF12C0E945C02681979098A099B0967
:10053000683E734081059105A8F321E0C21AD108F5
:10054000E108F10888EE880E83E0981EA11CB11C1A
:10055000C114D104E104F10429F7FF90EF90DF907A
:10056000CF90BF90AF909F908F900895FC01019025
:100570000020E9F73197AF01481B590BBC018FE50B
:1005800091E00C948C00CF93DF930E94B602EC01B3
:1005900084E191E00E94B6028C0F9D1FDF91CF9104
:1005A00008958F929F92AF92BF92CF92DF92EF9277
:1005B000FF920F931F93CF93DF93CDB7DEB7A19731
:1005C0000FB6F894DEBF0FBECDBF6C01990FEE08D9
:1005D000FF08F7FE47C06DE28FE591E00E942C0115
:1005E0008C0122273327A9012C193D094E095F09E7
:1005F00019A2CE0181967C019AE0892E912CA12C22
:10060000B12CCA01B901A50194010E944107605DA6
:10061000F70162937F01211531054105510589F7E5
:1006200090E080E0309719F0CF010E94B602080FE9
:10063000191F84E191E00E94B602800F911FA196DC
:100640000FB6F894DEBF0FBECDBFDF91CF911F91E3
:100650000F91FF90EF90DF90CF90BF90AF909F9061
:100660008F900895A701960119A28E010F5D1F4F6B
:100670008AE0C82ED12CE12CF12CCA01B901A701C6
:1006800096010E944107605DF80162938F01211578
:1006900031054105510589F7309729F0CF010E94B6
:1006A000B6028C01C6CF10E000E0C3CF1F920F92BC
:1006B0000FB60F9211242F933F934F935F936F9335
:1006C0007F938F939F93AF93BF93EF93FF938FE5A8
:1006D00091E00E940A01FF91EF91BF91AF919F912C
:1006E0008F917F916F915F914F913F912F910F90DB
:1006F0000FBE0F901F9018951F920F920FB60F927A
:1007000011242F938F939F93EF93FF93E0916F01A9
:10071000F09170018081E0917501F091760182FD88
:100720001BC09081809178018F5F8F732091790138
:10073000821741F0E0917801F0E0E15AFE4F958F89
:1007400080937801FF91EF919F918F912F910F905E
:100750000FBE0F901F9018958081F4CF1F920F92BB
:100760000FB60F9211242F933F938F939F93AF93C4
:10077000BF938091430190914401A0914501B091B4
:1007800046013091420123E0230F2D3758F50196A1
:10079000A11DB11D20934201809343019093440118
:1007A000A0934501B0934601809147019091480183
:1007B000A0914901B0914A010196A11DB11D8093FC
:1007C000470190934801A0934901B0934A01BF911A
:1007D000AF919F918F913F912F910F900FBE0F90EE
:1007E0001F90189526E8230F0296A11DB11DD2CFA8
:1007F000789484B5826084BD84B5816084BD85B5FC
:10080000826085BD85B5816085BD80916E00816007
:1008100080936E00109281008091810082608093AD
:1008200081008091810081608093810080918000AF
:100830008160809380008091B10084608093B100DA
:100840008091B00081608093B00080917A008460D4
:1008500080937A0080917A00826080937A00809100
:100860007A00816080937A0080917A00806880931A
:100870007A001092C100E0916F01F091700182E066
:100880008083E0916B01F0916C011082E0916D0129
:10089000F0916E018FEC808310927701E0917301EB
:1008A000F091740186E08083E0917101F091720112
:1008B000808180618083E0917101F091720180817B
:1008C00088608083E0917101F0917201808180687D
:1008D0008083E0917101F091720180818F7D80832E
:1008E00062E082E00E94190262E083E00E94190245
:1008F00061E084E00E94190261E085E00E94190233
:1009000061E086E00E94190261E087E00E9419021E
:1009100061E088E00E94190261E089E00E9419020A
:1009200061E08AE00E94190261E08BE00E941902F6
:1009300062E080E10E94190262E081E10E941902F6
:1009400061E082E10E94190261E083E10E941902E4
:1009500062E08CE00E94190262E08DE00E941902C0
:1009600061E08EE00E94190261E08FE00E941902AE
:1009700044E6E42EF12CC3E0D0E000E010E084E196
:100980000E944A020E94D10285E10E944A020E940E
:10099000D10280E10E94C201892B09F0CEC0809172
:1009A00001018823D9F080914D0190914E0101966B
:1009B00090934E0180934D018C3221E092070CF010
:1009C000A1C087E191E00E94C30261E082E10E9440
:1009D000EB0181E080935E0110925D0181E10E9454
:1009E000C201892B09F0D3C0809100018823D9F07E
:1009F00080914B0190914C01019690934C01809312
:100A00004B018C3221E092070CF0A6C08EE291E0FF
:100A10000E94C30261E083E10E94EB0110925E013B
:100A200081E080935D0180E10E94C201019749F459
:100A300081E10E94C201019721F410925E0110929F
:100A40005D018CE00E94C201892B09F0AFC080914A
:100A50005C0181110BC061E08FE00E94EB0161E05D
:100A60008EE00E94EB0181E080935C018CE00E94AB
:100A7000C2010197A9F48DE00E94C201019781F49F
:100A800060E08FE00E94EB0160E08EE00E94EB01ED
:100A900010925C0110925B0110925A011092590160
:100AA0008CE00E94C201892B09F491C08DE00E9464
:100AB000C201892B09F0A0C080915B0181119CC00B
:100AC000C0904F01D0905001C114D10489F480919D
:100AD0005A01811153C161E08EE00E94EB0160E098
:100AE0008FE00E94EB0181E080935A01109259013E
:100AF000C6010196B7010E942D0790935001809383
:100B00004F017AC0893E93407CF08CE191E00E94D5
:100B1000C30260E083E10E94EB0160E082E10E9499
:100B2000EB01109201015ACF60E083E10E94EB01DA
:100B300060E082E10E94EB0151CF80915D01811163
:100B40004DCF60E082E10E94EB0110924E011092C5
:100B50004D0110925E0142CF893E93407CF081E3CB
:100B600091E00E94C30260E083E10E94EB0160E03B
:100B700082E10E94EB011092000155CF60E083E119
:100B80000E94EB0160E082E10E94EB014CCF80917A
:100B90005E01811148CF60E083E10E94EB01109279
:100BA0004C0110924B0110925D013DCF8DE00E94EF
:100BB000C201019709F05ACF60E08FE00E94EB017B
:100BC00060E08EE00E94EB0110925C014FCF8DE05F
:100BD0000E94C201892B09F069CF80915C018111CB
:100BE0000BC061E08FE00E94EB0161E08EE00E94AB
:100BF000EB0181E080935C0180E00E94C201892BBF
:100C000041F533E3C32ED12C80E00E94C201892B31
:100C100029F481E0C81AD10809F0CBC080915701AE
:100C2000909158010196BE010E942D0790935801A2
:100C30008093570160E0009729F08130910509F019
:100C4000AFC061E084E00E94EB0160E088E00E94B8
:100C5000EB0181E00E94C201892B41F523E3C22E02
:100C6000D12C81E00E94C201892B29F421E0C21A13
:100C7000D10809F0AAC080915501909156010196C2
:100C8000BE010E942D07909356018093550160E0AC
:100C9000009729F08130910509F08EC061E085E070
:100CA0000E94EB0160E089E00E94EB0182E00E947B
:100CB000C201892B41F593E3C92ED12C82E00E9419
:100CC000C201892B29F481E0C81AD10809F089C032
:100CD00080915301909154010196BE010E942D070D
:100CE000909354018093530160E0009729F0813084
:100CF000910509F06DC061E086E00E94EB0160E0C3
:100D00008AE00E94EB0183E00E94C201892B41F539
:100D100083E3C82ED12C83E00E94C201892B29F4E1
:100D200021E0C21AD10809F068C080915101909168
:100D300052010196BE010E942D07909352018093AB
:100D4000510160E0009729F08130910509F04CC015
:100D500061E087E00E94EB0160E08BE00E94EB0124
:100D60000E9481020115110509F409CE0E94F600C6
:100D7000882309F404CE0E94000001CE809159011D
:100D80008111B6CE60E08EE00E94EB0161E08FE061
:100D90000E94EB0110925A0181E080935901A8CE84
:100DA000029709F056CF61E084E00E94EB0161E018
:100DB0004DCF0E94810228CF029709F077CF61E0E2
:100DC00085E00E94EB0161E06ECF0E94810249CF75
:100DD000029709F098CF61E086E00E94EB0161E0A4
:100DE0008FCF0E9481026ACF029709F0B9CF61E0EC
:100DF00087E00E94EB0161E0B0CF0E9481028BCFBF
:100E0000EFE5F1E01382128288EE93E0A0E0B0E01B
:100E100084839583A683B78386E091E09183808362
:100E200085EC90E09587848784EC90E097878687AF
:100E300080EC90E0918B808B81EC90E0938B828BA7
:100E400082EC90E0958B848B86EC90E0978B868B80
:100E5000118E128E138E148E089597FB072E16F4A2
:100E6000009407D077FD09D00E94630707FC05D0E6
:100E70003EF4909581959F4F0895709561957F4FB1
:100E80000895A1E21A2EAA1BBB1BFD010DC0AA1FCB
:100E9000BB1FEE1FFF1FA217B307E407F50720F0E3
:100EA000A21BB30BE40BF50B661F771F881F991F5E
:100EB0001A9469F760957095809590959B01AC01A7
:100EC000BD01CF010895AA1BBB1B51E107C0AA1F9A
:100ED000BB1FA617B70710F0A61BB70B881F991FDB
:100EE0005A95A9F780959095BC01CD010895EE0F14
:0E0EF000FF1F0590F491E02D0994F894FFCFB8
:100EFE000101000000002C018C00B9007901EA000C
:100F0E00C800DC000D0A00444F574E005472696D44
:100F1E0020446F776E20756E747275737400555021
:100F2E00005472696D20555020756E74727573740D
:020F3E000000B1
:00000001FF
